{
  "contractName": "Roullette",
  "abi": [
    {
      "inputs": [],
      "stateMutability": "payable",
      "type": "constructor"
    },
    {
      "stateMutability": "payable",
      "type": "fallback"
    },
    {
      "inputs": [],
      "name": "commitHash",
      "outputs": [
        {
          "internalType": "bytes32",
          "name": "",
          "type": "bytes32"
        }
      ],
      "stateMutability": "view",
      "type": "function"
    },
    {
      "inputs": [],
      "name": "maxBet",
      "outputs": [
        {
          "internalType": "uint256",
          "name": "",
          "type": "uint256"
        }
      ],
      "stateMutability": "view",
      "type": "function"
    },
    {
      "stateMutability": "payable",
      "type": "receive"
    },
    {
      "inputs": [],
      "name": "depositMoney",
      "outputs": [],
      "stateMutability": "payable",
      "type": "function"
    },
    {
      "inputs": [],
      "name": "getCasinoDeposit",
      "outputs": [
        {
          "internalType": "uint256",
          "name": "",
          "type": "uint256"
        }
      ],
      "stateMutability": "view",
      "type": "function"
    },
    {
      "inputs": [],
      "name": "getCommitmentHash",
      "outputs": [
        {
          "internalType": "bytes32",
          "name": "",
          "type": "bytes32"
        }
      ],
      "stateMutability": "view",
      "type": "function"
    },
    {
      "inputs": [
        {
          "internalType": "uint256",
          "name": "newWN",
          "type": "uint256"
        }
      ],
      "name": "setWinningNumber",
      "outputs": [],
      "stateMutability": "nonpayable",
      "type": "function"
    },
    {
      "inputs": [],
      "name": "setCommitmentHash",
      "outputs": [
        {
          "internalType": "bytes32",
          "name": "",
          "type": "bytes32"
        }
      ],
      "stateMutability": "nonpayable",
      "type": "function"
    },
    {
      "inputs": [
        {
          "internalType": "uint256",
          "name": "amt",
          "type": "uint256"
        }
      ],
      "name": "setMaxBet",
      "outputs": [],
      "stateMutability": "nonpayable",
      "type": "function"
    },
    {
      "inputs": [
        {
          "internalType": "uint256[][]",
          "name": "_bets",
          "type": "uint256[][]"
        }
      ],
      "name": "placeBet",
      "outputs": [],
      "stateMutability": "payable",
      "type": "function"
    },
    {
      "inputs": [
        {
          "internalType": "uint256",
          "name": "_winningNumber",
          "type": "uint256"
        }
      ],
      "name": "revealWinningNumber",
      "outputs": [
        {
          "internalType": "uint256",
          "name": "",
          "type": "uint256"
        }
      ],
      "stateMutability": "payable",
      "type": "function"
    },
    {
      "inputs": [],
      "name": "WinningNumber",
      "outputs": [
        {
          "internalType": "uint256",
          "name": "",
          "type": "uint256"
        }
      ],
      "stateMutability": "view",
      "type": "function"
    },
    {
      "inputs": [],
      "name": "getBalance",
      "outputs": [
        {
          "internalType": "uint256",
          "name": "",
          "type": "uint256"
        }
      ],
      "stateMutability": "view",
      "type": "function"
    },
    {
      "inputs": [],
      "name": "seeBets",
      "outputs": [
        {
          "components": [
            {
              "internalType": "uint256[]",
              "name": "numbers",
              "type": "uint256[]"
            },
            {
              "internalType": "uint256",
              "name": "multiplier",
              "type": "uint256"
            },
            {
              "internalType": "uint256",
              "name": "betAmount",
              "type": "uint256"
            }
          ],
          "internalType": "struct Roullette.Bet[]",
          "name": "",
          "type": "tuple[]"
        }
      ],
      "stateMutability": "view",
      "type": "function"
    },
    {
      "inputs": [],
      "name": "seePlayerWinnings",
      "outputs": [
        {
          "internalType": "int256",
          "name": "",
          "type": "int256"
        }
      ],
      "stateMutability": "view",
      "type": "function"
    },
    {
      "inputs": [],
      "name": "gameReset",
      "outputs": [],
      "stateMutability": "nonpayable",
      "type": "function"
    },
    {
      "inputs": [
        {
          "internalType": "uint256",
          "name": "index",
          "type": "uint256"
        }
      ],
      "name": "removeBet",
      "outputs": [],
      "stateMutability": "nonpayable",
      "type": "function"
    },
    {
      "inputs": [],
      "name": "getGameState",
      "outputs": [
        {
          "internalType": "string",
          "name": "",
          "type": "string"
        },
        {
          "internalType": "uint256",
          "name": "",
          "type": "uint256"
        }
      ],
      "stateMutability": "view",
      "type": "function"
    }
  ],
  "bytecode": "0x6080604052600060035566038d7ea4c6800060045530600560006101000a81548173ffffffffffffffffffffffffffffffffffffffff021916908373ffffffffffffffffffffffffffffffffffffffff1602179055506000801b60065560266007556000600960006101000a81548160ff0219169083151502179055506000600960016101000a81548160ff0219169083151502179055506000600960026101000a81548160ff0219169083151502179055506001600960036101000a81548160ff02191690831515021790555033600260006101000a81548173ffffffffffffffffffffffffffffffffffffffff021916908373ffffffffffffffffffffffffffffffffffffffff1602179055506136178061011d6000396000f3fe6080604052600436106101025760003560e01c806373b31cc211610095578063881eff1e11610064578063881eff1e146102ce578063a3e3d2e4146102f7578063b7d0628b14610320578063bce5008c1461034c578063d14f6c061461037757610109565b806373b31cc2146102315780637556e7bf1461024d5780637fc6fc7e14610278578063857c1c9a146102a357610109565b806316c05aa2116100d157806316c05aa2146101a85780632e5b2168146101b25780635c2029a9146101dd5780636f2e56981461020657610109565b8063088736561461010b57806311800df21461012257806312065fe014610152578063161ebe551461017d57610109565b3661010957005b005b34801561011757600080fd5b506101206103a2565b005b61013c60048036038101906101379190612bb4565b6106b0565b60405161014991906133ca565b60405180910390f35b34801561015e57600080fd5b50610167610822565b60405161017491906133ca565b60405180910390f35b34801561018957600080fd5b5061019261082a565b60405161019f91906131c2565b60405180910390f35b6101b0610934565b005b3480156101be57600080fd5b506101c76109d1565b6040516101d491906133ca565b60405180910390f35b3480156101e957600080fd5b5061020460048036038101906101ff9190612bb4565b6109d7565b005b34801561021257600080fd5b5061021b610bfd565b60405161022891906133ca565b60405180910390f35b61024b60048036038101906102469190612b73565b610c07565b005b34801561025957600080fd5b50610262610f26565b60405161026f91906131e4565b60405180910390f35b34801561028457600080fd5b5061028d610f30565b60405161029a91906131e4565b60405180910390f35b3480156102af57600080fd5b506102b86110bd565b6040516102c591906131e4565b60405180910390f35b3480156102da57600080fd5b506102f560048036038101906102f09190612bb4565b6110c3565b005b34801561030357600080fd5b5061031e60048036038101906103199190612bb4565b611135565b005b34801561032c57600080fd5b50610335611199565b60405161034392919061321a565b60405180910390f35b34801561035857600080fd5b5061036161128c565b60405161036e91906131ff565b60405180910390f35b34801561038357600080fd5b5061038c6112d5565b60405161039991906133ca565b60405180910390f35b600260009054906101000a900473ffffffffffffffffffffffffffffffffffffffff1673ffffffffffffffffffffffffffffffffffffffff163373ffffffffffffffffffffffffffffffffffffffff1614610432576040517f08c379a0000000000000000000000000000000000000000000000000000000008152600401610429906132aa565b60405180910390fd5b600960029054906101000a900460ff1661044b57600080fd5b6000801b600654141561045d57600080fd5b6000600960026101000a81548160ff0219169083151502179055506001600960036101000a81548160ff021916908315150217905550601e4201600a819055506000801b600681905550600754600881905550602660078190555060008090505b6001805490508110156106ad575b6000806000600184815481106104de57fe5b9060005260206000200160009054906101000a900473ffffffffffffffffffffffffffffffffffffffff1673ffffffffffffffffffffffffffffffffffffffff1673ffffffffffffffffffffffffffffffffffffffff16815260200190815260200160002060010180549050111561060f576000806001838154811061056057fe5b9060005260206000200160009054906101000a900473ffffffffffffffffffffffffffffffffffffffff1673ffffffffffffffffffffffffffffffffffffffff1673ffffffffffffffffffffffffffffffffffffffff1681526020019081526020016000206001018054806105d157fe5b6001900381819060005260206000209060030201600080820160006105f69190612982565b60018201600090556002820160009055505090556104cc565b60008060006001848154811061062157fe5b9060005260206000200160009054906101000a900473ffffffffffffffffffffffffffffffffffffffff1673ffffffffffffffffffffffffffffffffffffffff1673ffffffffffffffffffffffffffffffffffffffff16815260200190815260200160002060000160156101000a81548160ff02191690831515021790555080806001019150506104be565b50565b6000600260009054906101000a900473ffffffffffffffffffffffffffffffffffffffff1673ffffffffffffffffffffffffffffffffffffffff163373ffffffffffffffffffffffffffffffffffffffff1614610742576040517f08c379a0000000000000000000000000000000000000000000000000000000008152600401610739906133aa565b60405180910390fd5b60065482600560009054906101000a900473ffffffffffffffffffffffffffffffffffffffff1660405160200161077a929190613196565b60405160208183030381529060405280519060200120146107d0576040517f08c379a00000000000000000000000000000000000000000000000000000000081526004016107c79061338a565b60405180910390fd5b6000600960016101000a81548160ff0219169083151502179055506001600960026101000a81548160ff02191690831515021790555060784201600a819055506108186112f8565b6007549050919050565b600047905090565b60606000803373ffffffffffffffffffffffffffffffffffffffff1673ffffffffffffffffffffffffffffffffffffffff168152602001908152602001600020600101805480602002602001604051908101604052809291908181526020016000905b8282101561092b5783829060005260206000209060030201604051806060016040529081600082018054806020026020016040519081016040528092919081815260200182805480156108ff57602002820191906000526020600020905b8154815260200190600101908083116108eb575b50505050508152602001600182015481526020016002820154815250508152602001906001019061088d565b50505050905090565b600260009054906101000a900473ffffffffffffffffffffffffffffffffffffffff1673ffffffffffffffffffffffffffffffffffffffff163373ffffffffffffffffffffffffffffffffffffffff16146109c4576040517f08c379a00000000000000000000000000000000000000000000000000000000081526004016109bb9061334a565b60405180910390fd5b3460035401600381905550565b60045481565b60003390506000808273ffffffffffffffffffffffffffffffffffffffff1673ffffffffffffffffffffffffffffffffffffffff168152602001908152602001600020600101805490508210610a2d5750610bfa565b60008290505b60016000808473ffffffffffffffffffffffffffffffffffffffff1673ffffffffffffffffffffffffffffffffffffffff1681526020019081526020016000206001018054905003811015610b74576000808373ffffffffffffffffffffffffffffffffffffffff1673ffffffffffffffffffffffffffffffffffffffff1681526020019081526020016000206001016001820181548110610ad157fe5b90600052602060002090600302016000808473ffffffffffffffffffffffffffffffffffffffff1673ffffffffffffffffffffffffffffffffffffffff1681526020019081526020016000206001018281548110610b2b57fe5b90600052602060002090600302016000820181600001908054610b4f9291906129a3565b5060018201548160010155600282015481600201559050508080600101915050610a33565b506000808273ffffffffffffffffffffffffffffffffffffffff1673ffffffffffffffffffffffffffffffffffffffff168152602001908152602001600020600101805480610bbf57fe5b600190038181906000526020600020906003020160008082016000610be49190612982565b6001820160009055600282016000905550509055505b50565b6000600354905090565b600960019054906101000a900460ff16610c2057600080fd5b6000339050600260009054906101000a900473ffffffffffffffffffffffffffffffffffffffff1673ffffffffffffffffffffffffffffffffffffffff168173ffffffffffffffffffffffffffffffffffffffff161415610cb6576040517f08c379a0000000000000000000000000000000000000000000000000000000008152600401610cad9061332a565b60405180910390fd5b6003546024340210610cfd576040517f08c379a0000000000000000000000000000000000000000000000000000000008152600401610cf49061330a565b60405180910390fd5b6001341015610d41576040517f08c379a0000000000000000000000000000000000000000000000000000000008152600401610d389061326a565b60405180910390fd5b600454341115610d86576040517f08c379a0000000000000000000000000000000000000000000000000000000008152600401610d7d9061336a565b60405180910390fd5b6000808273ffffffffffffffffffffffffffffffffffffffff1673ffffffffffffffffffffffffffffffffffffffff16815260200190815260200160002060000160149054906101000a900460ff16610f17576001339080600181540180825580915050600190039060005260206000200160009091909190916101000a81548173ffffffffffffffffffffffffffffffffffffffff021916908373ffffffffffffffffffffffffffffffffffffffff160217905550336000808373ffffffffffffffffffffffffffffffffffffffff1673ffffffffffffffffffffffffffffffffffffffff16815260200190815260200160002060000160006101000a81548173ffffffffffffffffffffffffffffffffffffffff021916908373ffffffffffffffffffffffffffffffffffffffff16021790555060016000808373ffffffffffffffffffffffffffffffffffffffff1673ffffffffffffffffffffffffffffffffffffffff16815260200190815260200160002060000160146101000a81548160ff0219169083151502179055505b610f22818334612277565b5050565b6000600654905090565b6000600960039054906101000a900460ff16610f4b57600080fd5b600260009054906101000a900473ffffffffffffffffffffffffffffffffffffffff1673ffffffffffffffffffffffffffffffffffffffff163373ffffffffffffffffffffffffffffffffffffffff1614610fdb576040517f08c379a0000000000000000000000000000000000000000000000000000000008152600401610fd2906132ea565b60405180910390fd5b6000801b60065414611022576040517f08c379a0000000000000000000000000000000000000000000000000000000008152600401611019906132ca565b60405180910390fd5b600754600560009054906101000a900473ffffffffffffffffffffffffffffffffffffffff16604051602001611059929190613196565b604051602081830303815290604052805190602001206006819055506000600960036101000a81548160ff0219169083151502179055506001600960016101000a81548160ff02191690831515021790555060784201600a81905550600654905090565b60065481565b600260009054906101000a900473ffffffffffffffffffffffffffffffffffffffff1673ffffffffffffffffffffffffffffffffffffffff163373ffffffffffffffffffffffffffffffffffffffff1614801561112257506004548114155b61112b57600080fd5b8060048190555050565b600260009054906101000a900473ffffffffffffffffffffffffffffffffffffffff1673ffffffffffffffffffffffffffffffffffffffff163373ffffffffffffffffffffffffffffffffffffffff161461118f57600080fd5b8060078190555050565b606060006060600960019054906101000a900460ff16156111f1576040518060400160405280600c81526020017f62657474696e6750686173650000000000000000000000000000000000000000815250905061127d565b600960029054906101000a900460ff1615611243576040518060400160405280600b81526020017f706179696e675068617365000000000000000000000000000000000000000000815250905061127c565b6040518060400160405280600a81526020017f726573657450686173650000000000000000000000000000000000000000000081525090505b5b8042600a540392509250509091565b60008060003373ffffffffffffffffffffffffffffffffffffffff1673ffffffffffffffffffffffffffffffffffffffff16815260200190815260200160002060020154905090565b6000600960029054906101000a900460ff166112f057600080fd5b600754905090565b600960029054906101000a900460ff1661131157600080fd5b60008090505b6001805490508110156122745760006001828154811061133357fe5b9060005260206000200160009054906101000a900473ffffffffffffffffffffffffffffffffffffffff1690506000809050600080600090505b6000808573ffffffffffffffffffffffffffffffffffffffff1673ffffffffffffffffffffffffffffffffffffffff168152602001908152602001600020600101805490508110156122455760008060008673ffffffffffffffffffffffffffffffffffffffff1673ffffffffffffffffffffffffffffffffffffffff16815260200190815260200160002060000160156101000a81548160ff0219169083151502179055506000600754148061142657506026600754145b15611500576007546000808673ffffffffffffffffffffffffffffffffffffffff1673ffffffffffffffffffffffffffffffffffffffff168152602001908152602001600020600101828154811061147a57fe5b906000526020600020906003020160000160008154811061149757fe5b9060005260206000200154146000808673ffffffffffffffffffffffffffffffffffffffff1673ffffffffffffffffffffffffffffffffffffffff16815260200190815260200160002060000160156101000a81548160ff0219169083151502179055506120b4565b60276000808673ffffffffffffffffffffffffffffffffffffffff1673ffffffffffffffffffffffffffffffffffffffff168152602001908152602001600020600101828154811061154e57fe5b906000526020600020906003020160000160008154811061156b57fe5b906000526020600020015414156115e957600060026007548161158a57fe5b06146000808673ffffffffffffffffffffffffffffffffffffffff1673ffffffffffffffffffffffffffffffffffffffff16815260200190815260200160002060000160156101000a81548160ff0219169083151502179055506120b3565b60286000808673ffffffffffffffffffffffffffffffffffffffff1673ffffffffffffffffffffffffffffffffffffffff168152602001908152602001600020600101828154811061163757fe5b906000526020600020906003020160000160008154811061165457fe5b906000526020600020015414156116d257600160026007548161167357fe5b06146000808673ffffffffffffffffffffffffffffffffffffffff1673ffffffffffffffffffffffffffffffffffffffff16815260200190815260200160002060000160156101000a81548160ff0219169083151502179055506120b2565b60296000808673ffffffffffffffffffffffffffffffffffffffff1673ffffffffffffffffffffffffffffffffffffffff168152602001908152602001600020600101828154811061172057fe5b906000526020600020906003020160000160008154811061173d57fe5b9060005260206000200154141561185257600a60075411158061177257506014600754101580156117715750601c60075411155b5b156117e457600060026007548161178557fe5b06146000808673ffffffffffffffffffffffffffffffffffffffff1673ffffffffffffffffffffffffffffffffffffffff16815260200190815260200160002060000160156101000a81548160ff02191690831515021790555061184d565b60016002600754816117f257fe5b06146000808673ffffffffffffffffffffffffffffffffffffffff1673ffffffffffffffffffffffffffffffffffffffff16815260200190815260200160002060000160156101000a81548160ff0219169083151502179055505b6120b1565b602a6000808673ffffffffffffffffffffffffffffffffffffffff1673ffffffffffffffffffffffffffffffffffffffff16815260200190815260200160002060010182815481106118a057fe5b90600052602060002090600302016000016000815481106118bd57fe5b90600052602060002001541480156118e1575060006002600754816118de57fe5b06145b156119ea57600a60075411158061190a57506014600754101580156119095750601c60075411155b5b1561197c57600160026007548161191d57fe5b06146000808673ffffffffffffffffffffffffffffffffffffffff1673ffffffffffffffffffffffffffffffffffffffff16815260200190815260200160002060000160156101000a81548160ff0219169083151502179055506119e5565b600060026007548161198a57fe5b06146000808673ffffffffffffffffffffffffffffffffffffffff1673ffffffffffffffffffffffffffffffffffffffff16815260200190815260200160002060000160156101000a81548160ff0219169083151502179055505b6120b0565b602b6000808673ffffffffffffffffffffffffffffffffffffffff1673ffffffffffffffffffffffffffffffffffffffff1681526020019081526020016000206001018281548110611a3857fe5b9060005260206000209060030201600001600081548110611a5557fe5b90600052602060002001541415611aca57600c60075411156000808673ffffffffffffffffffffffffffffffffffffffff1673ffffffffffffffffffffffffffffffffffffffff16815260200190815260200160002060000160156101000a81548160ff0219169083151502179055506120af565b602c6000808673ffffffffffffffffffffffffffffffffffffffff1673ffffffffffffffffffffffffffffffffffffffff1681526020019081526020016000206001018281548110611b1857fe5b9060005260206000209060030201600001600081548110611b3557fe5b90600052602060002001541415611bb857600c600754118015611b5b5750601860075411155b6000808673ffffffffffffffffffffffffffffffffffffffff1673ffffffffffffffffffffffffffffffffffffffff16815260200190815260200160002060000160156101000a81548160ff0219169083151502179055506120ae565b602d6000808673ffffffffffffffffffffffffffffffffffffffff1673ffffffffffffffffffffffffffffffffffffffff1681526020019081526020016000206001018281548110611c0657fe5b9060005260206000209060030201600001600081548110611c2357fe5b90600052602060002001541415611c97576018600754116000808673ffffffffffffffffffffffffffffffffffffffff1673ffffffffffffffffffffffffffffffffffffffff16815260200190815260200160002060000160156101000a81548160ff0219169083151502179055506120ad565b602e6000808673ffffffffffffffffffffffffffffffffffffffff1673ffffffffffffffffffffffffffffffffffffffff1681526020019081526020016000206001018281548110611ce557fe5b9060005260206000209060030201600001600081548110611d0257fe5b90600052602060002001541415611d80576001600360075481611d2157fe5b06146000808673ffffffffffffffffffffffffffffffffffffffff1673ffffffffffffffffffffffffffffffffffffffff16815260200190815260200160002060000160156101000a81548160ff0219169083151502179055506120ac565b602f6000808673ffffffffffffffffffffffffffffffffffffffff1673ffffffffffffffffffffffffffffffffffffffff1681526020019081526020016000206001018281548110611dce57fe5b9060005260206000209060030201600001600081548110611deb57fe5b90600052602060002001541415611e69576002600360075481611e0a57fe5b06146000808673ffffffffffffffffffffffffffffffffffffffff1673ffffffffffffffffffffffffffffffffffffffff16815260200190815260200160002060000160156101000a81548160ff0219169083151502179055506120ab565b60306000808673ffffffffffffffffffffffffffffffffffffffff1673ffffffffffffffffffffffffffffffffffffffff1681526020019081526020016000206001018281548110611eb757fe5b9060005260206000209060030201600001600081548110611ed457fe5b90600052602060002001541415611f52576000600360075481611ef357fe5b06146000808673ffffffffffffffffffffffffffffffffffffffff1673ffffffffffffffffffffffffffffffffffffffff16815260200190815260200160002060000160156101000a81548160ff0219169083151502179055506120aa565b60008090505b6000808673ffffffffffffffffffffffffffffffffffffffff1673ffffffffffffffffffffffffffffffffffffffff1681526020019081526020016000206001018281548110611fa457fe5b9060005260206000209060030201600001805490508110156120a8576007546000808773ffffffffffffffffffffffffffffffffffffffff1673ffffffffffffffffffffffffffffffffffffffff168152602001908152602001600020600101838154811061200f57fe5b9060005260206000209060030201600001828154811061202b57fe5b9060005260206000200154141561209b5760016000808773ffffffffffffffffffffffffffffffffffffffff1673ffffffffffffffffffffffffffffffffffffffff16815260200190815260200160002060000160156101000a81548160ff0219169083151502179055506120a8565b8080600101915050611f58565b505b5b5b5b5b5b5b5b5b5b5b600015156000808673ffffffffffffffffffffffffffffffffffffffff1673ffffffffffffffffffffffffffffffffffffffff16815260200190815260200160002060000160159054906101000a900460ff1615151415612176576000808573ffffffffffffffffffffffffffffffffffffffff1673ffffffffffffffffffffffffffffffffffffffff168152602001908152602001600020600101818154811061215b57fe5b90600052602060002090600302016002015482019150612238565b6000808573ffffffffffffffffffffffffffffffffffffffff1673ffffffffffffffffffffffffffffffffffffffff16815260200190815260200160002060010181815481106121c257fe5b9060005260206000209060030201600201546000808673ffffffffffffffffffffffffffffffffffffffff1673ffffffffffffffffffffffffffffffffffffffff168152602001908152602001600020600101828154811061222057fe5b90600052602060002090600302016001015402830192505b808060010191505061136d565b5061224f81612710565b612259828461271e565b61226482828561283d565b5050508080600101915050611317565b50565b600080905060008351905060008090505b818110156122c95784818151811061229c57fe5b60200260200101516000815181106122b057fe5b6020026020010151830192508080600101915050612288565b5082821461230c576040517f08c379a00000000000000000000000000000000000000000000000000000000081526004016123039061324a565b60405180910390fd5b60008090505b8181101561270857600085828151811061232857fe5b602002602001015160008151811061233c57fe5b602002602001015190506000600187848151811061235657fe5b6020026020010151510360248161236957fe5b049050602787848151811061237a57fe5b602002602001015160018151811061238e57fe5b602002602001015114806123c9575060288784815181106123ab57fe5b60200260200101516001815181106123bf57fe5b6020026020010151145b806123fb575060298784815181106123dd57fe5b60200260200101516001815181106123f157fe5b6020026020010151145b8061242d5750602a87848151811061240f57fe5b602002602001015160018151811061242357fe5b6020026020010151145b1561243b576002905061256b565b602b87848151811061244957fe5b602002602001015160018151811061245d57fe5b602002602001015114806124985750602c87848151811061247a57fe5b602002602001015160018151811061248e57fe5b6020026020010151145b806124ca5750602d8784815181106124ac57fe5b60200260200101516001815181106124c057fe5b6020026020010151145b806124fc5750602e8784815181106124de57fe5b60200260200101516001815181106124f257fe5b6020026020010151145b8061252e5750602f87848151811061251057fe5b602002602001015160018151811061252457fe5b6020026020010151145b806125605750603087848151811061254257fe5b602002602001015160018151811061255657fe5b6020026020010151145b1561256a57600390505b5b6060600188858151811061257b57fe5b6020026020010151510367ffffffffffffffff8111801561259b57600080fd5b506040519080825280602002602001820160405280156125ca5781602001602082028036833780820191505090505b5090506000600190505b8885815181106125e057fe5b60200260200101515181101561263f578885815181106125fc57fe5b6020026020010151818151811061260f57fe5b602002602001015182600183038151811061262657fe5b60200260200101818152505080806001019150506125d4565b506000808a73ffffffffffffffffffffffffffffffffffffffff1673ffffffffffffffffffffffffffffffffffffffff168152602001908152602001600020600101604051806060016040528083815260200184815260200185815250908060018154018082558091505060019003906000526020600020906003020160009091909190915060008201518160000190805190602001906126e19291906129f5565b50602082015181600101556040820151816002015550505050508080600101915050612312565b505050505050565b806003540160038190555050565b81600354036003819055506127946000808373ffffffffffffffffffffffffffffffffffffffff1673ffffffffffffffffffffffffffffffffffffffff16815260200190815260200160002060000160009054906101000a900473ffffffffffffffffffffffffffffffffffffffff16836128cd565b60008060008373ffffffffffffffffffffffffffffffffffffffff1673ffffffffffffffffffffffffffffffffffffffff16815260200190815260200160002060010180549050905060008090505b81811015612837576000808473ffffffffffffffffffffffffffffffffffffffff1673ffffffffffffffffffffffffffffffffffffffff1681526020019081526020016000205080806001019150506127e3565b50505050565b8183036000808373ffffffffffffffffffffffffffffffffffffffff1673ffffffffffffffffffffffffffffffffffffffff16815260200190815260200160002060020154016000808373ffffffffffffffffffffffffffffffffffffffff1673ffffffffffffffffffffffffffffffffffffffff16815260200190815260200160002060020181905550505050565b600060608373ffffffffffffffffffffffffffffffffffffffff16836040516128f590613181565b60006040518083038185875af1925050503d8060008114612932576040519150601f19603f3d011682016040523d82523d6000602084013e612937565b606091505b50915091508161297c576040517f08c379a00000000000000000000000000000000000000000000000000000000081526004016129739061328a565b60405180910390fd5b50505050565b50805460008255906000526020600020908101906129a09190612a42565b50565b8280548282559060005260206000209081019282156129e45760005260206000209182015b828111156129e35782548255916001019190600101906129c8565b5b5090506129f19190612a42565b5090565b828054828255906000526020600020908101928215612a31579160200282015b82811115612a30578251825591602001919060010190612a15565b5b509050612a3e9190612a42565b5090565b612a6491905b80821115612a60576000816000905550600101612a48565b5090565b90565b600082601f830112612a7857600080fd5b8135612a8b612a8682613412565b6133e5565b9150818183526020840193506020810190508360005b83811015612ad15781358601612ab78882612adb565b845260208401935060208301925050600181019050612aa1565b5050505092915050565b600082601f830112612aec57600080fd5b8135612aff612afa8261343a565b6133e5565b91508181835260208401935060208101905083856020840282011115612b2457600080fd5b60005b83811015612b545781612b3a8882612b5e565b845260208401935060208301925050600181019050612b27565b5050505092915050565b600081359050612b6d816135ca565b92915050565b600060208284031215612b8557600080fd5b600082013567ffffffffffffffff811115612b9f57600080fd5b612bab84828501612a67565b91505092915050565b600060208284031215612bc657600080fd5b6000612bd484828501612b5e565b91505092915050565b6000612be983836130fc565b905092915050565b6000612bfd838361314c565b60208301905092915050565b612c1a612c15826134fb565b61357e565b82525050565b6000612c2b82613482565b612c3581856134bd565b935083602082028501612c4785613462565b8060005b85811015612c835784840389528151612c648582612bdd565b9450612c6f836134a3565b925060208a01995050600181019050612c4b565b50829750879550505050505092915050565b6000612ca08261348d565b612caa81856134ce565b9350612cb583613472565b8060005b83811015612ce6578151612ccd8882612bf1565b9750612cd8836134b0565b925050600181019050612cb9565b5085935050505092915050565b612cfc8161350d565b82525050565b612d0b81613517565b82525050565b6000612d1c82613498565b612d2681856134ea565b9350612d3681856020860161354b565b612d3f816135ac565b840191505092915050565b6000612d576027836134ea565b91507f42657420616d6f756e74206e6f74206571756976616c656e7420746f20746f7460008301527f616c2062657473000000000000000000000000000000000000000000000000006020830152604082019050919050565b6000612dbd601c836134ea565b91507f42657473206d75737420626520206174206c65617374203120776569000000006000830152602082019050919050565b6000612dfd6014836134ea565b91507f4661696c656420746f2073656e642045746865720000000000000000000000006000830152602082019050919050565b6000612e3d601e836134ea565b91507f4f6e6c792074686520636173696e6f2063616e2072657365742067616d6500006000830152602082019050919050565b6000612e7d6014836134ea565b91507f4861736820616c726561647920637265617465640000000000000000000000006000830152602082019050919050565b6000612ebd6024836134ea565b91507f4f6e6c792074686520636173696e6f2063616e2067656e6572617465206f757460008301527f636f6d65000000000000000000000000000000000000000000000000000000006020830152604082019050919050565b6000612f236017836134ea565b91507f436173696e6f2063616e6e6f7420636f766572206265740000000000000000006000830152602082019050919050565b6000612f636019836134ea565b91507f436173696e6f2063616e6e6f74206265206120706c61796572000000000000006000830152602082019050919050565b6000612fa36021836134ea565b91507f4f6e6c792074686520636173696e6f2063616e206465706f736974206d6f6e6560008301527f79000000000000000000000000000000000000000000000000000000000000006020830152604082019050919050565b60006130096010836134ea565b91507f4d617820626574206578636565646564000000000000000000000000000000006000830152602082019050919050565b60006130496000836134df565b9150600082019050919050565b60006130636012836134ea565b91507f4861736820646f65736e2774206d6174636800000000000000000000000000006000830152602082019050919050565b60006130a36027836134ea565b91507f4f6e6c792074686520636173696e6f2063616e2072657665616c57696e6e696e60008301527f674e756d626572000000000000000000000000000000000000000000000000006020830152604082019050919050565b600060608301600083015184820360008601526131198282612c95565b915050602083015161312e602086018261314c565b506040830151613141604086018261314c565b508091505092915050565b61315581613541565b82525050565b61316481613541565b82525050565b61317b61317682613541565b6135a2565b82525050565b600061318c8261303c565b9150819050919050565b60006131a2828561316a565b6020820191506131b28284612c09565b6014820191508190509392505050565b600060208201905081810360008301526131dc8184612c20565b905092915050565b60006020820190506131f96000830184612cf3565b92915050565b60006020820190506132146000830184612d02565b92915050565b600060408201905081810360008301526132348185612d11565b9050613243602083018461315b565b9392505050565b6000602082019050818103600083015261326381612d4a565b9050919050565b6000602082019050818103600083015261328381612db0565b9050919050565b600060208201905081810360008301526132a381612df0565b9050919050565b600060208201905081810360008301526132c381612e30565b9050919050565b600060208201905081810360008301526132e381612e70565b9050919050565b6000602082019050818103600083015261330381612eb0565b9050919050565b6000602082019050818103600083015261332381612f16565b9050919050565b6000602082019050818103600083015261334381612f56565b9050919050565b6000602082019050818103600083015261336381612f96565b9050919050565b6000602082019050818103600083015261338381612ffc565b9050919050565b600060208201905081810360008301526133a381613056565b9050919050565b600060208201905081810360008301526133c381613096565b9050919050565b60006020820190506133df600083018461315b565b92915050565b6000604051905081810181811067ffffffffffffffff8211171561340857600080fd5b8060405250919050565b600067ffffffffffffffff82111561342957600080fd5b602082029050602081019050919050565b600067ffffffffffffffff82111561345157600080fd5b602082029050602081019050919050565b6000819050602082019050919050565b6000819050602082019050919050565b600081519050919050565b600081519050919050565b600081519050919050565b6000602082019050919050565b6000602082019050919050565b600082825260208201905092915050565b600082825260208201905092915050565b600081905092915050565b600082825260208201905092915050565b600061350682613521565b9050919050565b6000819050919050565b6000819050919050565b600073ffffffffffffffffffffffffffffffffffffffff82169050919050565b6000819050919050565b60005b8381101561356957808201518184015260208101905061354e565b83811115613578576000848401525b50505050565b600061358982613590565b9050919050565b600061359b826135bd565b9050919050565b6000819050919050565b6000601f19601f8301169050919050565b60008160601b9050919050565b6135d381613541565b81146135de57600080fd5b5056fea26469706673582212207b79d6e984eef0db815c0b5754c960457499fd0d15a16efb9003677e644f2d1464736f6c63430006060033",
  "immutableReferences": {},
  "source": "pragma solidity ^0.6.6;\npragma experimental ABIEncoderV2;\n\n\ncontract Roullette {\n\n    struct Bet {\n        uint256[] numbers;\n        uint256 multiplier;\n        uint256 betAmount;\n    }\n\n    struct Player {\n        address payable playerAddress;\n        bool playerExists; // Whether the player has already been added to map and array;\n        bool win; // Whether the player won or lost\n        // bool gameInProgress; // Whether the player is currently playing a game\n        // uint256 result;\n        Bet[] bets;\n        int256 totalWinnings; // Keeps track of player balance\n    }\n\n    mapping(address => Player) playerMap; // Map containing all players playing the game (this is not iterable)\n    address[] playerAddressArray; // Array of all players addresses of players playing the game (this is iterable)\n    address payable casino;  // Address of the casino, will not change after contract is deployed\n    uint256 casinoDeposit = 0; // Value of the casino deposit\n    uint256 public maxBet = .001 ether;\n    address payable contractAddress = address(this);  // Address of this contract\n    bytes32 public commitHash = 0;\n    uint256 winningNumber = 38;\n    uint256 lastWinningNumber;\n    bool wheelSpun = false;\n\n    bool bettingPhase  = false;\n    bool payingPhase = false ;\n    bool resetPhase = true;\n    uint256 phaseEndTime;\n\n    constructor () public payable{\n        // Casino initiates the contract\n        casino = msg.sender;\n    }\n\n    // Function to receive Ether. msg.data must be empty\n    receive() external payable {}\n\n    // Fallback function is called when msg.data is not empty\n    fallback() external payable {}\n\n    // Function to send a value of money to an address\n    function sendViaCall(address payable _to, uint256 _amount) internal {\n        (bool sent, bytes memory data) = _to.call{value: _amount}(\"\");\n        require(sent, \"Failed to send Ether\");\n    }\n\n    // Function for the casino to deposit money, must be called for the rest of the contract to work\n    function depositMoney() public payable {\n        require(msg.sender == casino, \"Only the casino can deposit money\");\n        casinoDeposit = casinoDeposit + msg.value;\n    }\n\n    function getCasinoDeposit() public view returns (uint256){\n        return casinoDeposit;\n    }\n\n    function getCommitmentHash() public view returns (bytes32){\n        return commitHash;\n    }\n\n    function setWinningNumber(uint256 newWN) public{\n        require(msg.sender == casino);\n        {\n            winningNumber = newWN;\n        }\n    }\n\n    function setCommitmentHash() public returns (bytes32) {\n        require (resetPhase);\n        require(msg.sender == casino, \"Only the casino can generate outcome\");\n        require (commitHash == 0, \"Hash already created\");\n        commitHash = keccak256(abi.encodePacked(winningNumber,contractAddress));\n        resetPhase = false;\n        bettingPhase = true;\n        phaseEndTime = now + 2 minutes;\n        return commitHash;\n    }\n\n    function setMaxBet(uint256 amt) public {\n        require(msg.sender== casino && amt != maxBet);\n        maxBet = amt;\n    }\n\n    // Function for the casino to match the bet amount\n    function matchBet(uint256 _betAmount) internal {\n        casinoDeposit = casinoDeposit - _betAmount; // bet amount is deducted from casinoDeposit and but remains in the contract balance\n    }\n\n    function placeBet(uint256[][] memory _bets) public payable {\n        require(bettingPhase);\n        address _playerAddress = msg.sender;\n        require(_playerAddress != casino, \"Casino cannot be a player\");\n        require(msg.value * 36 < casinoDeposit, \"Casino cannot cover bet\"); // Bet must be less than the money in the casino deposit to ensure casino can cover the bet\n        require(msg.value >= 1 wei, \"Bets must be  at least 1 wei\"); // Must be greater or equal to minimum bet of 1 wei\n        require(msg.value <= maxBet, \"Max bet exceeded\"); // Must be less than or equal to max bet of .001 ether\n\n        if( !playerMap[_playerAddress].playerExists) { // If player is new\n            playerAddressArray.push(msg.sender); // Add player address to array of player addresses\n            playerMap[_playerAddress].playerAddress = msg.sender;\n            playerMap[_playerAddress].playerExists = true;\n        }\n\n        setBet(_playerAddress, _bets, msg.value);\n    }\n\n    // This is the spin wheel function\n    function revealWinningNumber(uint256 _winningNumber) public payable returns (uint256){\n        require(msg.sender == casino, \"Only the casino can revealWinningNumber\");\n        require(keccak256(abi.encodePacked(_winningNumber,contractAddress)) ==  commitHash, \"Hash doesn't match\"); // Ensures winning winningNumber was not changed\n        bettingPhase = false;\n        payingPhase = true;\n        phaseEndTime = now + 2 minutes;\n        payout();\n        return winningNumber;\n    }\n\n    function WinningNumber() public view returns (uint256)  {\n        require(payingPhase);\n        return winningNumber;\n    }\n\n    function payout() internal{\n        require(payingPhase);\n        for (uint n = 0; n < playerAddressArray.length; n++){\n            address _playerAddress = playerAddressArray[n];\n            uint256 winAmount = 0;\n            uint256 loseAmount;\n            for(uint256 i = 0; i < playerMap[_playerAddress].bets.length; i++){ // Loop through players bets\n                playerMap[_playerAddress].win = false;\n                if (winningNumber == 0  || winningNumber == 38){ // Winning number is 0 or 00\n                    playerMap[_playerAddress].win = (playerMap[_playerAddress].bets[i].numbers[0] == winningNumber);\n                }\n                else if(playerMap[_playerAddress].bets[i].numbers[0] == 39){ // Evens\n                    playerMap[_playerAddress].win = (winningNumber % 2 == 0);\n                }\n                else if (playerMap[_playerAddress].bets[i].numbers[0] == 40){ // Odds\n                    playerMap[_playerAddress].win = (winningNumber % 2 == 1);\n                }\n                else if (playerMap[_playerAddress].bets[i].numbers[0] == 41){  // Blacks\n                    if (winningNumber <= 10 || (winningNumber >= 20 && winningNumber <= 28)) {\n                        playerMap[_playerAddress].win = (winningNumber % 2 == 0);\n                    }\n                    else {\n                        playerMap[_playerAddress].win = (winningNumber % 2 == 1);\n                    }\n                }\n                else if (playerMap[_playerAddress].bets[i].numbers[0] == 42 && winningNumber % 2 == 0){ // Reds\n                    if (winningNumber <= 10 || (winningNumber >= 20 && winningNumber <= 28)) {\n                        playerMap[_playerAddress].win = (winningNumber % 2 == 1);\n                    }\n                    else {\n                         playerMap[_playerAddress].win = (winningNumber % 2 == 0);\n                    }\n                }\n                else if (playerMap[_playerAddress].bets[i].numbers[0] == 43){ // First dozen\n                    playerMap[_playerAddress].win = (winningNumber <= 12);\n                }\n                else if (playerMap[_playerAddress].bets[i].numbers[0] == 44){ // Second dozen\n                    playerMap[_playerAddress].win = (winningNumber > 12 && winningNumber <= 24);\n                }\n                else if (playerMap[_playerAddress].bets[i].numbers[0] == 45){ // Third dozen\n                    playerMap[_playerAddress].win = (winningNumber > 24);\n                }\n                else if (playerMap[_playerAddress].bets[i].numbers[0] == 46){ // First Column\n                    playerMap[_playerAddress].win = (winningNumber % 3 == 1);\n                }\n                else if (playerMap[_playerAddress].bets[i].numbers[0] == 47){ // Second Column\n                    playerMap[_playerAddress].win = (winningNumber % 3 == 2);\n                }\n                else if (playerMap[_playerAddress].bets[i].numbers[0] == 48){ // Third Column\n                    playerMap[_playerAddress].win = (winningNumber % 3 == 0);\n                }\n                else {\n                    for(uint256 j = 0; j < playerMap[_playerAddress].bets[i].numbers.length; j++){ // Loop through every winningNumber in the bet\n                        if(playerMap[_playerAddress].bets[i].numbers[j] == winningNumber){ // Check if any are individual winning number\n                            playerMap[_playerAddress].win = true;\n                            break;\n                        }\n                    }\n                }\n                if (playerMap[_playerAddress].win == false){\n                    loseAmount = loseAmount + playerMap[_playerAddress].bets[i].betAmount;\n                }\n                else{\n                    winAmount = winAmount + playerMap[_playerAddress].bets[i].multiplier * playerMap[_playerAddress].bets[i].betAmount;\n                }\n            }\n            payCasino(loseAmount);\n            payPlayer(winAmount, _playerAddress);\n            updateWinnings(winAmount, loseAmount, _playerAddress);\n        }\n\n    }\n\n    function setBet(address _playerAddress, uint256[][] memory _bets, uint256 _betTotal) internal{\n        // Sample Bets [[100,1,2,3,4],[100,20],[100,1,2,3,4,5,6,7,8,9,10,11,12]]\n        uint256 betTotal = 0;\n        uint256 n = _bets.length;\n        for(uint i = 0; i < n; i++){\n            betTotal += _bets[i][0];\n        }\n        require(betTotal == _betTotal, \"Bet amount not equivalent to total bets\");\n        for(uint i = 0; i < n; i++){\n            uint256 betAmount = _bets[i][0];\n            uint256 multiplier = 36/(_bets[i].length - 1);\n            if(_bets[i][1] == 39 || _bets[i][1] == 40 || _bets[i][1] == 41 || _bets[i][1] == 42){ // Evens\n                multiplier = 2;\n            }\n            else if (_bets[i][1] == 43 || _bets[i][1] == 44 || _bets[i][1] == 45 || _bets[i][1] == 46 || _bets[i][1] == 47 || _bets[i][1] == 48){ // First dozen\n                multiplier = 3;\n            }\n            uint256[] memory numbers = new uint256[](_bets[i].length - 1);\n            for(uint j = 1; j < _bets[i].length; j++){\n                numbers[j-1]= _bets[i][j];\n            }\n            playerMap[_playerAddress].bets.push(Bet(numbers,multiplier,betAmount));\n        }\n    }\n\n    function payCasino(uint256 amount) internal{\n        casinoDeposit = casinoDeposit + amount;\n    }\n\n    function payPlayer(uint256 amount, address _playerAddress) internal{\n        casinoDeposit = casinoDeposit - amount;\n        sendViaCall(playerMap[_playerAddress].playerAddress, amount);\n        uint256 numberOfBets = playerMap[_playerAddress].bets.length;\n        for(uint256 i = 0; i < numberOfBets; i++){\n            playerMap[_playerAddress].bets.pop;\n        }\n    }\n\n    // Funtion to return total balance of the contract which is casinoDeposit + all bets currently on the table\n    function getBalance() public view returns (uint) {\n        return address(this).balance;\n    }\n\n    // See current players bets\n    function seeBets() public view returns (Bet[] memory){\n        return playerMap[msg.sender].bets;\n    }\n\n    function seePlayerWinnings() public view returns (int256){\n        return playerMap[msg.sender].totalWinnings;\n    }\n\n    function updateWinnings(uint256 winAmount, uint256 loseAmount, address _playerAddress) internal{\n        playerMap[_playerAddress].totalWinnings = playerMap[_playerAddress].totalWinnings + int256(winAmount - loseAmount);\n    }\n\n    function gameReset() external{\n        require(msg.sender == casino, \"Only the casino can reset game\");\n        require(payingPhase);\n        require(commitHash != 0);\n        payingPhase = false;\n        resetPhase = true;\n        phaseEndTime = now + 30 seconds;\n        commitHash = 0;\n        lastWinningNumber = winningNumber;\n        winningNumber = 38;\n        for (uint i = 0; i < playerAddressArray.length; i++){\n            while(playerMap[playerAddressArray[i]].bets.length > 0){\n                playerMap[playerAddressArray[i]].bets.pop();\n            }\n            playerMap[playerAddressArray[i]].win = false;\n        }\n    }\n\n    function removeBet(uint index) public {\n        address _playerAddress = msg.sender;\n        if (index >= playerMap[_playerAddress].bets.length) return ;\n        for (uint i = index; i< playerMap[_playerAddress].bets.length - 1; i++){\n            playerMap[_playerAddress].bets[i] = playerMap[_playerAddress].bets[i+1];\n        }\n        playerMap[_playerAddress].bets.pop();\n    }\n\n    function getGameState() public view returns (string memory, uint256) {\n        string  memory str;\n        if (bettingPhase){\n            str  = \"bettingPhase\";\n        }\n        else if (payingPhase){\n            str = \"payingPhase\";\n        }\n        else {\n            str = \"resetPhase\";\n        }\n        return (str, phaseEndTime - now );\n    }\n\n\n}\n",
  "sourcePath": "/Users/ithihasreddy/projects/finalRRTest/contracts/Roullette.sol",
  "compiler": {
    "name": "solc",
    "version": "0.6.6+commit.6c089d02.Emscripten.clang"
  },
  "schemaVersion": "3.4.0",
  "updatedAt": "2021-05-03T08:47:32.657Z",
  "devdoc": {
    "methods": {}
  },
  "userdoc": {
    "methods": {}
  }
}